:020000040800F2
:10000000C00800200502000861020008DB0B0008A0
:10001000610200086102000861020008000000009F
:100020000000000000000000000000006102000865
:10003000610200080000000061020008610200087F
:100040006102000861020008610200086102000804
:1000500061020008610200086102000861020008F4
:100060005D08000889080008B5080008610200085A
:1000700061020008610200086102000861020008D4
:1000800061020008610200086102000861020008C4
:1000900061020008610200086102000861020008B4
:1000A00061020008610200086102000861020008A4
:1000B0006102000861020008610200086102000894
:1000C0006102000861020008610200086102000884
:1000D0006102000861020008610200086102000874
:1000E0006102000861020008610200086102000864
:1000F0006102000861020008610200086102000854
:100100006102000861020008610200086102000843
:100110006102000861020008610200086102000833
:100120006102000861020008610200086102000823
:100130006102000861020008610200086102000813
:100140006102000861020008610200086102000803
:1001500061020008610200086102000861020008F3
:1001600061020008610200086102000861020008E3
:1001700061020008610200086102000861020008D3
:10018000610200086102000890B484B000AF02462A
:100190000B46FA71BB710023FB60BB7903F00303CC
:1001A0009B000F2202FA03F3FB60154BBA79920809
:1001B000D2B21349B8798008C0B2023051F8200099
:1001C000F968C9430140023243F822100C4BBA7956
:1001D0009208D2B20A49B8798008C0B2023051F808
:1001E0002000FC79B97901F00301890004FA01F1DA
:1001F0000143023243F822101037BD4690BC7047CD
:100200000038014080B582B000AF104B7B60104BCE
:100210003B6007E03B681A1D3A607A68111D7960FF
:1002200012681A603A680B4B9A42F3D30A480B499A
:100230004FF000028842B8BF40F8042BFFF6FAAF37
:1002400000F0E4FA0837BD4680BD00BFB0120008D8
:10025000000000200000002000000020BC00002062
:1002600080B400AFFEE700BF80B483B000AF0346A8
:10027000FB71094B97F907205209F97901F01F0129
:10028000012000FA01F1603243F822100C37BD461C
:100290005DF8047B704700BF00E100E080B500AF6F
:1002A0004FF48040012100F057FB0420012100F0B1
:1002B00017FB504B00221A714E4B00229A714D4B86
:1002C00004221A604B4B0022DA714A4B03225A7106
:1002D0004948484900F05EFB02200221FFF754FF25
:1002E000464B04221A60454B01229A71434B00226F
:1002F0001A71424B08225A71404800F07BFC404B77
:1003000008221A703E4B0122DA703D4B00225A70CF
:100310003B4B01229A703A4800F0E8FC394B00222E
:100320001A71384B00229A71364B08221A60354BED
:100330000022DA71334B03225A712F48314900F001
:1003400029FB02200321FFF71FFF2F4B08221A6011
:100350002D4B01229A712C4B00221A712A4B082234
:100360005A71294800F046FC284B09221A70274B85
:100370000122DA70254B00225A70244B01229A7018
:10038000224800F0B3FC224B00221A71204B0022BD
:100390009A711F4B10221A601D4B0022DA711C4B00
:1003A00003225A7114481A4900F0F4FA0220042179
:1003B000FFF7EAFE174B10221A60164B01229A71C2
:1003C000144B00221A71134B08225A71114800F085
:1003D00011FC114B0A221A700F4B0122DA700E4BDE
:1003E00000225A700C4B01229A700B4800F07EFCE0
:1003F00080BD00BF68000020000802409800002077
:10040000A8000020B4000020740000209400002008
:100410003C000020000000207000002080B500AFEC
:100420000820012100F05CFA0420012100F058FAB4
:10043000424B4FF400521A60404B02221A713F4B5C
:1004400000229A713D4B0022DA713C4B03225A7113
:100450003B483A4900F09EFA39480D21022200F04B
:100460006BFB384B4FF480421A60364B02221A71F4
:10047000344B00229A71334B0022DA71314B032244
:100480005A712F482F4900F085FA2D480E2102227B
:1004900000F052FB2C4B4FF400421A602A4B022210
:1004A0001A71294B00229A71274B0022DA71264BD0
:1004B00003225A712248244900F06CFA20480F2187
:1004C000022200F039FB214B40221A601F4B01220F
:1004D0001A711E4B00229A711C4B0022DA711B4BC1
:1004E00003225A711A48194900F054FA194B802214
:1004F0001A60184B01221A71164B00229A71154B83
:100500000022DA71134B03225A711148114900F08D
:1005100041FA114B4FF480721A600F4B01221A718D
:100520000D4B00229A710C4B0022DA710A4B032208
:100530005A710748084900F02DFA80BDA00000203C
:10054000000C024088000020AC00002008000020C1
:1005500000080240440000201400002080B500AFD5
:100560000420012100F0DAF9224B00221A81214BEC
:1005700000225A801F4B4FF4FA625A601D4B2A2208
:100580001A801C4B00229A721B481A4900F00CFC7E
:100590001A4B60221A80194B00229A81174B0122B4
:1005A0005A80164B00229A601348144900F0B4FC9C
:1005B0001148124900F038FD0F48104900F0BAFD0B
:1005C0000D48082100F01CFE0B48082100F036FE03
:1005D0000948082100F04EFE0748012100F05CFCAC
:1005E0000548012100F078FC0348002100F046FC9A
:1005F00080BD00BF7C0000200008004054000020A7
:1006000080B500AF0C4B00229A630B4B0022DA63DB
:10061000094B00221A6409484021002200F062FAC6
:1006200006488021002200F05DFA04484FF48071F2
:10063000002200F057FA80BD000800400008024088
:1006400098B500AF0A48042100F032FA03461C4670
:100650000748082100F02CFA03465B001C440448BC
:10066000102100F025FA03469B002344184698BD4C
:100670000008024080B582B000AF78607B68072B2D
:1006800000F2BC8001A252F823F000BFAD060008C2
:10069000C1070008E9060008B3060008550700086E
:1006A0008B0700081F070008F7070008FFF7A8FFDF
:1006B000A4E0544B00229A63524B4FF4FA62DA637F
:1006C000504B00221A6450484021002200F00AFAE0
:1006D0004D488021002200F005FA4B484FF480710C
:1006E000012200F0FFF989E0464B00229A63454B56
:1006F0004FF4FA62DA63434B00221A644248402105
:10070000012200F0EFF940488021002200F0EAF9D0
:100710003D484FF48071002200F0E4F96EE0394B5F
:1007200000229A63374B0022DA63364B4FF4FA62A9
:100730001A6435484021012200F0D4F93248802162
:10074000002200F0CFF930484FF48071002200F011
:10075000C9F953E02B4B00229A632A4B0022DA633B
:10076000284B4FF4FA621A6427484021002200F017
:10077000B9F925488021012200F0B4F922484FF44C
:100780008071002200F0AEF938E01E4B4FF4FA629F
:100790009A631C4B0022DA631A4B00221A641A482F
:1007A0004021002200F09EF917488021012200F02C
:1007B00099F915484FF48071002200F093F91DE07B
:1007C000104B4FF4FA629A630E4B0022DA630D4B22
:1007D00000221A640C484021002200F083F90A48E4
:1007E0008021002200F07EF907484FF48071012239
:1007F00000F078F902E0FFF703FF00BF0837BD46BD
:1008000080BD00BF000800400008024080B500AF76
:10081000FFF744FD0820012100F062F80D4B012292
:100820001A710C4B00229A710A4B4FF480521A60D5
:10083000084B0022DA71074B03225A71064805491A
:1008400000F0A8F8FFF7EAFDFFF788FE0320FFF7A6
:1008500011FFFEE74C000020000C024080B500AF05
:1008600008484FF4805100F055F9FFF7E9FE0346C0
:100870001846FFF7FFFE042000F02AFA0820FFF7D1
:10088000F3FC80BD000C024080B500AF08484FF477
:10089000805100F03FF9FFF7D3FE03461846FFF7FB
:1008A000E9FE082000F014FA0920FFF7DDFC80BD06
:1008B000000C024080B500AF08484FF4805100F0B2
:1008C00029F9FFF7BDFE03461846FFF7D3FE1020B7
:1008D00000F0FEF90A20FFF7C7FC80BD000C0240C3
:1008E00080B483B000AF78600B46FB70FB78002BC0
:1008F00006D0094B084A116B7A680A431A6306E06E
:10090000054B054A116B7A68D2430A401A630C37CB
:10091000BD465DF8047B70470038024080B483B068
:1009200000AF78600B46FB70FB78002B06D0094BBC
:10093000084A116C7A680A431A6406E0054B054AB6
:10094000116C7A68D2430A401A640C37BD465DF8D0
:10095000047B70470038024080B483B000AF7860F9
:100960000B46FB70FB78002B06D0094B084A516CF4
:100970007A680A435A6406E0054B054A516C7A6866
:10098000D2430A405A640C37BD465DF8047B704779
:100990000038024080B487B000AF7860396000232F
:1009A0007B6100233B610023FB6000237B6176E0D9
:1009B0007B69012202FA03F33B613B681A683B69D9
:1009C0001340FB60FA683B699A4265D17B681A68FC
:1009D0007B695B00032101FA03F3DB431A407B6868
:1009E0001A607B681A683B681B7919467B695B0053
:1009F00001FA03F31A437B681A603B681B79012BE9
:100A000003D03B681B79022B2ED17B689A687B69E7
:100A10005B00032101FA03F3DB431A407B689A6011
:100A20007B689A683B685B7919467B695B0001FAD1
:100A300003F31A437B689A607B685A687B699BB2B0
:100A4000012101FA03F3DB431A407B685A607B689B
:100A50005A683B689B7919467B699BB201FA03F39C
:100A60009BB21A437B685A607B68DA687B699BB2E9
:100A70005B00032101FA03F3DB431A407B68DA6071
:100A80007B68DA683B68DB7919467B695B0001FAB1
:100A900003F31A437B68DA607B6901337B617B690E
:100AA0000F2B85D91C37BD465DF8047B704700BF0E
:100AB00080B485B000AF78600B467B800023FB7369
:100AC0007B681A697B881340002B02D00123FB73DB
:100AD00001E00023FB73FB7B18461437BD465DF82D
:100AE000047B704780B483B000AF786013460A4639
:100AF0007A807B707B78002B03D07B687A881A839E
:100B000002E07B687A885A830C37BD465DF8047B27
:100B1000704700BF80B483B000AF78600B467B8025
:100B20007B685A697B885A407B685A610C37BD469E
:100B30005DF8047B704700BF80B485B000AF78607B
:100B400013460A467A807B700023FB600023BB605B
:100B50007A787B8803F007039B0002FA03F3FB60BB
:100B60007B88DB089BB21A467B88DB089BB2194660
:100B70007B68083153F821107B8803F007039B0042
:100B80000F2000FA03F3DB4319407B68083243F877
:100B900022107B88DB089BB21A467B68083253F828
:100BA0002220FB681343BB607B88DB089BB21A469C
:100BB0007B680832B96843F822101437BD465DF8E7
:100BC000047B7047ABBE00F002B800207047002ADB
:100BD00000F0018010600120704706980188044AE7
:100BE000914240F00380043006907047FEE7000019
:100BF000ABBE000080B485B000AF78600023FB601E
:100C0000324BFB607B689B79002B4DD02F4B2F4ADA
:100C100011687A681268D2430A401A602B4B2B4A3B
:100C200051687A681268D2430A405A607B681B791F
:100C3000FA681344FB60FB68FA6811687A68126806
:100C40000A431A60214B214A91687A681268D2439C
:100C50000A409A601D4B1D4AD1687A681268D243D7
:100C60000A40DA607B685B79102B0ED1174B174A6C
:100C700091687A6812680A439A60144B134AD168E3
:100C80007A6812680A43DA601BE0104BFB607B68ED
:100C90005B79FA681344FB60FB68FA6811687A684C
:100CA00012680A431A600CE07B681B79FA681344E7
:100CB000FB60FB68FA6811687A681268D2430A40E0
:100CC0001A601437BD465DF8047B7047003C014054
:100CD00080B483B000AF7860034B7A685A610C37F8
:100CE000BD465DF8047B7047003C014080B485B090
:100CF00000AF78600023FB730023BB730F237B736B
:100D00007B68DB78002B37D0254BDB68DB4303F4B3
:100D1000E0631B0AFB73FB7BC3F10403BB737A7BA9
:100D2000FB7B42FA03F37B737B685B781A46BB7BE1
:100D300002FA03F3FB737B689A787B7B1340DAB289
:100D4000FB7B1343FB73FB7B1B01FB73154A7B6827
:100D50001B781344FA7B83F80023124B7A681278CD
:100D60005209D2B27968097801F01F01012000FA16
:100D700001F143F822100EE00A4B7A68127852090A
:100D8000D2B27968097801F01F01012000FA01F15F
:100D9000203243F822101437BD465DF8047B7047BB
:100DA00000ED00E000E100E080B485B000AF7860C5
:100DB00039600023FB817B681B88FB817A68284BA4
:100DC0009A4213D07A68274B9A420FD07B68B3F1CE
:100DD000804F0BD07A68244B9A4207D07A68234B15
:100DE0009A4203D07A68224B9A4208D1FB8923F0B9
:100DF0007003FB813B685A88FB891343FB817A6847
:100E00001C4B9A420CD07A681B4B9A4208D0FB8943
:100E100023F44073FB813B681A89FB891343FB81F0
:100E20007B68FA891A803B685A687B68DA623B689B
:100E30001A887B681A857A68094B9A4203D07A68C7
:100E4000084B9A4204D13B689B7A1A467B681A8603
:100E50007B6801229A821437BD465DF8047B704797
:100E60000000014000040140000400400008004070
:100E7000000C0040001000400014004080B483B01B
:100E800000AF786039607B683A685A620C37BD46BB
:100E90005DF8047B704700BF80B483B000AF78601A
:100EA0000B46FB70FB78002B08D07B681B889BB23D
:100EB00043F080039AB27B681A8007E07B681B8846
:100EC0009BB223F080039AB27B681A800C37BD4630
:100ED0005DF8047B704700BF80B483B000AF7860DA
:100EE0000B46FB70FB78002B08D07B681B889BB2FD
:100EF00043F001039AB27B681A8007E07B681B8885
:100F00009BB223F001039AB27B681A800C37BD466E
:100F10005DF8047B704700BF80B485B000AF786097
:100F2000396000237B810023FB810023BB817B6828
:100F30001B8C9BB223F010039AB27B681A847B68E7
:100F40001B8CFB817B689B88BB817B681B8B7B81B7
:100F50007B8923F4E0437B817B8923F440737B818D
:100F60003B681B881B029AB27B8913437B81FB89F8
:100F700023F02003FB813B689B891B019AB2FB890C
:100F80001343FB813B685B881B019AB2FB891343C7
:100F9000FB817A68224B9A4203D07A68214B9A42AD
:100FA0002BD1FB8923F08003FB813B68DB891B018C
:100FB0009AB2FB891343FB81FB8923F04003FB8139
:100FC0003B689B881B019AB2FB891343FB81BB8959
:100FD00023F48063BB81BB8923F40063BB813B683E
:100FE0001B8A9B009AB2BB891343BB813B685B8A17
:100FF0009B009AB2BB891343BB817B68BA899A80F4
:101000007B687A891A833B689A687B689A637B68F5
:10101000FA891A841437BD465DF8047B704700BF17
:10102000000001400004014080B485B000AF78604A
:10103000396000237B810023FB810023BB817B6817
:101040001B8C9BB223F480739AB27B681A847B68F2
:101050001B8CFB817B689B88BB817B689B8B7B8126
:101060007B8923F070037B817B8923F003037B81E1
:101070003B681A887B8913437B81FB8923F40073C7
:10108000FB813B689B891B029AB2FB891343FB815E
:101090003B685B881B029AB2FB891343FB817A6829
:1010A000224B9A4203D07A68214B9A422BD1FB897A
:1010B00023F40063FB813B68DB891B029AB2FB8946
:1010C0001343FB81FB8923F48063FB813B689B888E
:1010D0001B029AB2FB891343FB81BB8923F4805323
:1010E000BB81BB8923F40053BB813B681B8A1B0176
:1010F0009AB2BB891343BB813B685B8A1B019AB2DE
:10110000BB891343BB817B68BA899A807B687A89E3
:101110009A833B689A687B68DA637B68FA891A84E9
:101120001437BD465DF8047B704700BF00000140E6
:101130000004014080B485B000AF786039600023BE
:10114000BB8100237B810023FB817B681B8C9BB2CE
:1011500023F480539AB27B681A847B681B8C7B8152
:101160007B689B88FB817B689B8BBB81BB8923F45D
:10117000E043BB81BB8923F44073BB813B681B8880
:101180001B029AB2BB891343BB817B8923F40053B2
:101190007B813B689B891B039AB27B8913437B81CC
:1011A0003B685B881B039AB27B8913437B817A6817
:1011B000114B9A4203D07A68104B9A420AD1FB89AC
:1011C00023F48043FB813B681B8A9B019AB2FB8915
:1011D0001343FB817B68FA899A807B68BA899A837A
:1011E0003B689A687B681A647B687A891A8414372A
:1011F000BD465DF8047B70470000014000040140DB
:1012000080B485B000AF78600B467B800023FB8103
:101210007B681B8BFB81FB8923F40063FB817B884C
:101220001B029AB2FB891343FB817B68FA891A83FC
:101230001437BD465DF8047B704700BF80B485B0AD
:1012400000AF78600B467B800023FB817B689B8B23
:10125000FB81FB8923F00803FB81FA897B88134318
:10126000FB817B68FA899A831437BD465DF8047B5D
:10127000704700BF80B485B000AF78600B467B80BC
:101280000023FB817B689B8BFB81FB8923F400633C
:10129000FB817B881B029AB2FB891343FB817B682D
:1012A000FA899A831437BD465DF8047B704700BF06
:0400000508000000EF
:00000001FF
