:020000040800F2
:100000000008002089010008E5010008E50100085A
:10001000E5010008E5010008E50100080000000016
:10002000000000000000000000000000E5010008E2
:10003000E501000800000000E5010008E5010008F6
:10004000E5010008E5010008E5010008E5010008F8
:10005000E5010008E5010008E5010008E5010008E8
:10006000E5010008E5010008E5010008E5010008D8
:10007000E5010008E5010008E5010008E5010008C8
:10008000E5010008E5010008E5010008E5010008B8
:10009000E5010008E5010008E5010008E5010008A8
:1000A000E5010008E5010008E5010008E501000898
:1000B000ED010008E5010008E5010008E501000880
:1000C000E5010008E5010008E5010008E501000878
:1000D000E5010008E5010008E5010008E501000868
:1000E000E5010008E5010008E5010008E501000858
:1000F000E5010008E5010008E5010008E501000848
:10010000E5010008E5010008E5010008E501000837
:10011000E5010008E5010008E5010008E501000827
:10012000E5010008E5010008E5010008E501000817
:10013000E5010008E5010008E5010008E501000807
:10014000E5010008E5010008E5010008E5010008F7
:10015000E5010008E5010008E5010008E5010008E7
:10016000E5010008E5010008E5010008E5010008D7
:10017000E5010008E5010008E5010008E5010008C7
:10018000E5010008E501000880B582B000AF104B22
:100190007B60104B3B6007E03B681A1D3A607A6851
:1001A000111D796012681A603A680B4B9A42F3D3BA
:1001B0000A480B494FF000028842B8BF40F8042BB0
:1001C000FFF6FAAF00F082F80837BD4680BD00BFE9
:1001D000740700080000002000000020000000203C
:1001E0000000002080B400AFFEE700BF80B500AF84
:1001F0004FF08040012100F083FA0346002B09D024
:1002000005484FF6FF7100F04BF94FF08040012197
:1002100000F0A0FA80BD00BF000C024080B500AF26
:100220000820012100F064F80120012100F07EF88F
:1002300080BD00BF80B582B000AF4FF6FF733B605A
:1002400001233B710023BB710123FB7103237B71ED
:100250003B460348194600F087F80837BD4680BD85
:10026000000C024080B584B000AF0023FB80002367
:10027000BB81F523BB604FF6FF73BB803B1D4FF086
:100280008040194600F08EF94FF08040012100F0C7
:10029000F3F91037BD4680BD80B582B000AF4FF492
:1002A000407000F00FF91C233B710123FB71002308
:1002B0007B713B1D184600F017F94FF0804001217B
:1002C000012200F0F9F90837BD4680BD80B500AFC6
:1002D000FFF7A4FFFFF7AEFFFFF7C4FFFFF7DCFF58
:1002E00002484FF6FF7100F0CDF8FEE7000C024027
:1002F00080B483B000AF78600B46FB70FB78002BB6
:1003000006D0094B084A116B7A680A431A6306E063
:10031000054B054A116B7A68D2430A401A630C37C1
:10032000BD465DF8047B70470038024080B483B05E
:1003300000AF78600B46FB70FB78002B06D0094BB2
:10034000084A116C7A680A431A6406E0054B054AAC
:10035000116C7A68D2430A401A640C37BD465DF8C6
:10036000047B70470038024080B487B000AF7860EB
:10037000396000237B6100233B610023FB60002385
:100380007B6176E07B69012202FA03F33B613B6803
:100390001A683B691340FB60FA683B699A4265D171
:1003A0007B681A687B695B00032101FA03F3DB4376
:1003B0001A407B681A607B681A683B681B7919468B
:1003C0007B695B0001FA03F31A437B681A603B68A0
:1003D0001B79012B03D03B681B79022B2ED17B6844
:1003E0009A687B695B00032101FA03F3DB431A403F
:1003F0007B689A607B689A683B685B7919467B6981
:100400005B0001FA03F31A437B689A607B685A68C1
:100410007B699BB2012101FA03F3DB431A407B683D
:100420005A607B685A683B689B7919467B699BB226
:1004300001FA03F39BB21A437B685A607B68DA685F
:100440007B699BB25B00032101FA03F3DB431A4093
:100450007B68DA607B68DA683B68DB7919467B6920
:100460005B0001FA03F31A437B68DA607B690133AE
:100470007B617B690F2B85D91C37BD465DF8047BFA
:10048000704700BF80B483B000AF78600B467B80BC
:100490007B687A885A830C37BD465DF8047B7047C9
:1004A00080B483B000AF78600B467B807B685A696C
:1004B0007B885A407B685A610C37BD465DF8047BE7
:1004C000704700BF80B483B000AF7860054A7B6896
:1004D00043F0BF6343F40033D3600C37BD465DF88F
:1004E000047B704700ED00E080B485B000AF786019
:1004F0000023FB730023BB730F237B737B68DB78C4
:10050000002B37D0254BDB68DB4303F4E0631B0A89
:10051000FB73FB7BC3F10403BB737A7BFB7B42FA67
:1005200003F37B737B685B781A46BB7B02FA03F3A9
:10053000FB737B689A787B7B1340DAB2FB7B1343B7
:10054000FB73FB7B1B01FB73154A7B681B78134411
:10055000FA7B83F80023124B7A6812785209D2B2E0
:100560007968097801F01F01012000FA01F143F8D0
:1005700022100EE00A4B7A6812785209D2B27968DA
:10058000097801F01F01012000FA01F1203243F83F
:1005900022101437BD465DF8047B704700ED00E083
:1005A00000E100E080B485B000AF786039600023DE
:1005B000FB817B681B88FB817A68284B9A4213D0A9
:1005C0007A68274B9A420FD07B68B3F1804F0BD0EB
:1005D0007A68244B9A4207D07A68234B9A4203D018
:1005E0007A68224B9A4208D1FB8923F07003FB8181
:1005F0003B685A88FB891343FB817A681C4B9A42FB
:100600000CD07A681B4B9A4208D0FB8923F44073C4
:10061000FB813B681A89FB891343FB817B68FA895C
:100620001A803B685A687B68DA623B681A887B6884
:100630001A857A68094B9A4203D07A68084B9A4225
:1006400004D13B689B7A1A467B681A867B68012234
:100650009A821437BD465DF8047B70470000014064
:10066000000401400004004000080040000C00406D
:10067000001000400014004080B483B000AF7860E8
:100680000B46FB70FB78002B08D07B681B889BB265
:1006900043F001039AB27B681A8007E07B681B88ED
:1006A0009BB223F001039AB27B681A800C37BD46D7
:1006B0005DF8047B704700BF80B483B000AF786002
:1006C00013460A467A807B707B78002B08D07B68C3
:1006D0009B899AB27B8813439AB27B689A8109E01E
:1006E0007B689B899AB27B88DB439BB213409AB2AA
:1006F0007B689A810C37BD465DF8047B704700BF6C
:1007000080B485B000AF78600B467B800023FB731C
:100710000023BB8100237B817B681B8A9AB27B8884
:100720001340BB817B689B899AB27B8813407B8195
:10073000BB89002B05D07B89002B02D00123FB73E2
:1007400001E00023FB73FB7B18461437BD465DF8C0
:10075000047B704780B483B000AF78600B467B8029
:100760007B88DB439AB27B681A820C37BD465DF802
:04077000047B70474F
:0400000508000000EF
:00000001FF
