:020000040800F2
:1000000000080020050200086102000861020008E3
:10001000610200086102000861020008000000009F
:100020000000000000000000000000006102000865
:10003000610200080000000061020008610200087F
:100040006102000861020008610200086102000804
:10005000610200086102000861020008110800083E
:100060003D080008690800086102000861020008F4
:1000700061020008610200086102000861020008D4
:1000800061020008610200086102000861020008C4
:1000900061020008610200086102000861020008B4
:1000A00061020008610200086102000861020008A4
:1000B0006102000861020008610200086102000894
:1000C0006102000861020008610200086102000884
:1000D0006102000861020008610200086102000874
:1000E0006102000861020008610200086102000864
:1000F0006102000861020008610200086102000854
:100100006102000861020008610200086102000843
:100110006102000861020008610200086102000833
:100120006102000861020008610200086102000823
:100130006102000861020008610200086102000813
:100140006102000861020008610200086102000803
:1001500061020008610200086102000861020008F3
:1001600061020008610200086102000861020008E3
:1001700061020008610200086102000861020008D3
:10018000610200086102000890B484B000AF02462A
:100190000B46FA71BB710023FB60BB7903F00303CC
:1001A0009B000F2202FA03F3FB60154BBA79920809
:1001B000D2B21349B8798008C0B2023051F8200099
:1001C000F968C9430140023243F822100C4BBA7956
:1001D0009208D2B20A49B8798008C0B2023051F808
:1001E0002000FC79B97901F00301890004FA01F1DA
:1001F0000143023243F822101037BD4690BC7047CD
:100200000038014080B582B000AF104B7B60104BCE
:100210003B6007E03B681A1D3A607A68111D7960FF
:1002200012681A603A680B4B9A42F3D30A480B499A
:100230004FF000028842B8BF40F8042BFFF6FAAF37
:1002400000F028FB0837BD4680BD00BF88130008BA
:10025000000000200000002000000020000000201E
:1002600080B400AFFEE700BF80B483B000AF0346A8
:10027000FB71094B97F907205209F97901F01F0129
:10028000012000FA01F1603243F822100C37BD461C
:100290005DF8047B704700BF00E100E080B586B0E8
:1002A00000AF0120012100F001FB4FF4804001214B
:1002B00000F038FB00233B750023BB7502233B6134
:1002C0000223FB7503237B7507F1100318481946B9
:1002D00000F046FB00200121FFF756FF00233B738F
:1002E0000023BB730423BB600223FB7303237B73D4
:1002F00007F108030E48194600F032FB00200221E6
:10030000FFF742FF00233B710023BB7108233B60D2
:100310000223FB7103237B713B460548194600F01D
:100320001FFB00200321FFF72FFF1837BD4680BDBC
:100330000000024080B58AB000AF02233B62012377
:1003400087F82630002387F82430102387F82530DB
:1003500007F12003184600F0FFFB07233B7701233A
:10036000FB7700237B770123BB7707F11C0318463B
:1003700000F092FC04237B610123BB7600233B76D3
:1003800010237B7607F11403184600F0E5FB0823E1
:100390003B740123FB7400237B740123BB7407F1BE
:1003A0001003184600F078FC0823BB600123BB73E0
:1003B00000233B7310237B7307F10803184600F0FA
:1003C000CBFB09233B710123FB7100237B710123CC
:1003D000BB713B1D184600F05FFC2837BD4680BD51
:1003E00080B58CB000AF0820012100F05FFA042036
:1003F000012100F05BFA4FF40053BB62022387F83F
:100400002C30032387F82D30002387F82E3001236A
:1004100087F82F3007F128033D48194600F0A0FA6D
:100420003B480D21022200F051FB4FF480433B6218
:10043000022387F82430032387F82530002387F828
:100440002630012387F8273007F12003304819466A
:1004500000F086FA2E480E21022200F037FB4FF4FE
:100460000043BB6102233B7703237B770023BB77E9
:100470000123FB7707F118032548194600F070FAAD
:1004800023480F21022200F021FB40233B6102237D
:100490003B7503237B750023BB750123FB7507F1B7
:1004A00010031C48194600F05BFA1A480621022284
:1004B00000F00CFB8023BB6002233B7303237B73A0
:1004C0000023BB730123FB7307F10803114819468E
:1004D00000F046FA0F480721022200F0F7FA4FF425
:1004E00080733B6002233B7103237B710023BB714C
:1004F0000123FB713B460748194600F031FA0548D5
:100500000821022200F0E2FA3037BD4680BD00BF6C
:10051000000C02400008024080B590B000AF0420FB
:10052000012100F0E1F90023BB870023FB864FF493
:10053000FA63BB632A23BB86002387F83E3007F1AA
:1005400034033E48194600F005FC60233B84002339
:10055000BB8501237B840023BB6207F1200337485E
:10056000194600F029FD07F120033448194600F030
:10057000ABFD07F120033148194600F02BFE2F4850
:10058000082100F0A9FE2D48082100F0C3FE2B48E9
:10059000082100F0DBFE2948012100F053FC274828
:1005A000012100F06FFC2548002100F03DFC0220F5
:1005B000012100F099F90023BB830023FB824FF453
:1005C000FA63BB612A23BB820023BB7707F11403C4
:1005D0001B48194600F0BEFB60233B800023BB8113
:1005E00001237B800023BB603B461548194600F081
:1005F00069FC3B461248194600F0DEFC3B461048B9
:10060000194600F061FD0E48082100F049FE0C4833
:10061000082100F061FE0A48082100F07BFE08482E
:10062000012100F00FFC0648012100F02BFC0448DA
:10063000002100F0F9FB4037BD4680BD00080040B6
:100640000004004080B400AF0A4B00229A63094BBB
:100650000022DA63074B00221A64074B00225A6318
:10066000054B00229A63044B0022DA63BD465DF815
:10067000047B7047000800400004004098B500AFBC
:100680000A48022100F0FAF903461C4607480421F3
:1006900000F0F4F903465B001C440448082100F014
:1006A000EDF903469B002344184698BD0000024024
:1006B00080B582B000AF78607B68072B00F29C8029
:1006C00001A252F823F000BFE9060008C90700089C
:1006D000710700089D0700081B070008EF060008C7
:1006E00047070008F3070008FFF7ACFF84E0444B1E
:1006F0004FF47A729A63424B0022DA63404B002235
:100700001A64404B00225A633E4B00229A633E48D3
:100710004FF4807100F0CCF96EE0394B00229A63FF
:100720003A484FF4804100F0C3F9354B00221A6477
:10073000344B00225A63334B4FF47A729A63314B35
:100740000022DA6358E02E4B00229A632C4B0022E1
:10075000DA632B4B00221A642B48402100F0A8F9E1
:10076000284B4FF47A729A63264B0022DA6343E0F7
:10077000234B00229A63224B0022DA63204B4FF472
:100780007A721A641F4B00225A631E4B00229A632E
:100790001D484FF4807100F08BF92DE0184B0022BA
:1007A0009A631A484FF4804100F082F9144B4FF4D9
:1007B0007A721A64134B00225A63124B00229A6316
:1007C000104B0022DA6317E00D4B4FF47A729A63F4
:1007D0000B4B0022DA630A4B00221A640A484021BC
:1007E00000F066F9074B00229A63064B0022DA6399
:1007F00002E0FFF727FF00BF0837BD4680BD00BFFE
:10080000000800400004004000080240000C0240C4
:1008100080B500AF0BE0FFF731FF03461846FFF746
:1008200047FF022000F02AFA0720FFF71DFD0220F3
:1008300000F000FA0346002BEDD180BD80B500AF7B
:100840000BE0FFF71BFF03461846FFF731FF0420BC
:1008500000F014FA0820FFF707FD042000F0EAF981
:100860000346002BEDD180BD80B500AF0BE0FFF754
:1008700005FF03461846FFF71BFF082000F0FEF9AE
:100880000920FFF7F1FC082000F0D4F90346002B03
:10089000EDD180BD80B500AFFFF700FDFFF7A0FDF3
:1008A000FFF748FDFFF738FEFEE700BF80B483B0D6
:1008B00000AF78600B46FB70FB78002B06D0094B2D
:1008C000084A116B7A680A431A6306E0054B054A29
:1008D000116B7A68D2430A401A630C37BD465DF843
:1008E000047B70470038024080B483B000AF78606A
:1008F0000B46FB70FB78002B06D0094B084A116CA5
:100900007A680A431A6406E0054B054A116C7A6856
:10091000D2430A401A640C37BD465DF8047B704729
:100920000038024080B483B000AF78600B46FB70A3
:10093000FB78002B06D0094B084A516C7A680A43B1
:100940005A6406E0054B054A516C7A68D2430A4066
:100950005A640C37BD465DF8047B7047003802408E
:1009600080B487B000AF7860396000237B610023DA
:100970003B610023FB6000237B6176E07B69012201
:1009800002FA03F33B613B681A683B691340FB6062
:10099000FA683B699A4265D17B681A687B695B009B
:1009A000032101FA03F3DB431A407B681A607B687A
:1009B0001A683B681B7919467B695B0001FA03F3EF
:1009C0001A437B681A603B681B79012B03D03B6894
:1009D0001B79022B2ED17B689A687B695B0003210F
:1009E00001FA03F3DB431A407B689A607B689A68DC
:1009F0003B685B7919467B695B0001FA03F31A4394
:100A00007B689A607B685A687B699BB2012101FA16
:100A100003F3DB431A407B685A607B685A683B6883
:100A20009B7919467B699BB201FA03F39BB21A4387
:100A30007B685A607B68DA687B699BB25B00032144
:100A400001FA03F3DB431A407B68DA607B68DA68FB
:100A50003B68DB7919467B695B0001FA03F31A43B3
:100A60007B68DA607B6901337B617B690F2B85D9F9
:100A70001C37BD465DF8047B704700BF80B485B06D
:100A800000AF78600B467B800023FB737B681A699C
:100A90007B881340002B02D00123FB7301E000236D
:100AA000FB73FB7B18461437BD465DF8047B70472B
:100AB00080B483B000AF78600B467B807B687A8817
:100AC0001A830C37BD465DF8047B704780B485B04F
:100AD00000AF786013460A467A807B700023FB6083
:100AE0000023BB607A787B8803F007039B0002FA3F
:100AF00003F3FB607B88DB089BB21A467B88DB082C
:100B00009BB219467B68083153F821107B8803F0AB
:100B100007039B000F2000FA03F3DB4319407B68B7
:100B2000083243F822107B88DB089BB21A467B68A8
:100B3000083253F82220FB681343BB607B88DB0834
:100B40009BB21A467B680832B96843F82210143702
:100B5000BD465DF8047B704780B485B000AF786017
:100B60000023FB60324BFB607B689B79002B4DD0F0
:100B70002F4B2F4A11687A681268D2430A401A60D4
:100B80002B4B2B4A51687A681268D2430A405A604C
:100B90007B681B79FA681344FB60FB68FA6811688C
:100BA0007A6812680A431A60214B214A91687A6870
:100BB0001268D2430A409A601D4B1D4AD1687A6878
:100BC0001268D2430A40DA607B685B79102B0ED141
:100BD000174B174A91687A6812680A439A60144B57
:100BE000134AD1687A6812680A43DA601BE0104B36
:100BF000FB607B685B79FA681344FB60FB68FA680A
:100C000011687A6812680A431A600CE07B681B79E5
:100C1000FA681344FB60FB68FA6811687A68126826
:100C2000D2430A401A601437BD465DF8047B704712
:100C3000003C014080B485B000AF78600023FB73B6
:100C40000023BB600C4B1A687B681340BB600A4BE7
:100C50005A697B681340002B05D0BB68002B02D07B
:100C60000123FB7301E00023FB73FB7B1846143761
:100C7000BD465DF8047B7047003C014080B483B002
:100C800000AF7860034B7A685A610C37BD465DF857
:100C9000047B7047003C014080B485B000AF7860B1
:100CA0000023FB730023BB730F237B737B68DB780C
:100CB000002B37D0254BDB68DB4303F4E0631B0AD2
:100CC000FB73FB7BC3F10403BB737A7BFB7B42FAB0
:100CD00003F37B737B685B781A46BB7B02FA03F3F2
:100CE000FB737B689A787B7B1340DAB2FB7B134300
:100CF000FB73FB7B1B01FB73154A7B681B7813445A
:100D0000FA7B83F80023124B7A6812785209D2B228
:100D10007968097801F01F01012000FA01F143F818
:100D200022100EE00A4B7A6812785209D2B2796822
:100D3000097801F01F01012000FA01F1203243F887
:100D400022101437BD465DF8047B704700ED00E0CB
:100D500000E100E080B485B000AF78603960002326
:100D6000FB817B681B88FB817A68284B9A4213D0F1
:100D70007A68274B9A420FD07B68B3F1804F0BD033
:100D80007A68244B9A4207D07A68234B9A4203D060
:100D90007A68224B9A4208D1FB8923F07003FB81C9
:100DA0003B685A88FB891343FB817A681C4B9A4243
:100DB0000CD07A681B4B9A4208D0FB8923F440730D
:100DC000FB813B681A89FB891343FB817B68FA89A5
:100DD0001A803B685A687B68DA623B681A887B68CD
:100DE0001A857A68094B9A4203D07A68084B9A426E
:100DF00004D13B689B7A1A467B681A867B6801227D
:100E00009A821437BD465DF8047B704700000140AC
:100E1000000401400004004000080040000C0040B5
:100E2000001000400014004080B483B000AF786030
:100E300039607B683A685A620C37BD465DF8047BBE
:100E4000704700BF80B483B000AF78600B46FB7082
:100E5000FB78002B08D07B681B889BB243F0800393
:100E60009AB27B681A8007E07B681B889BB223F0EC
:100E700080039AB27B681A800C37BD465DF8047B0C
:100E8000704700BF80B483B000AF78600B46FB7042
:100E9000FB78002B08D07B681B889BB243F00103D2
:100EA0009AB27B681A8007E07B681B889BB223F0AC
:100EB00001039AB27B681A800C37BD465DF8047B4B
:100EC000704700BF80B485B000AF78603960002300
:100ED0007B810023FB810023BB817B681B8C9BB241
:100EE00023F001039AB27B681A847B681B8CFB8118
:100EF0007B689B88BB817B681B8B7B817B8923F014
:100F000070037B817B8923F003037B813B681A8814
:100F10007B8913437B81FB8923F00203FB813B68C0
:100F20009A89FB891343FB813B685A88FB891343E9
:100F3000FB817A681E4B9A4203D07A681D4B9A4215
:100F400023D1FB8923F00803FB813B68DA89FB8905
:100F50001343FB81FB8923F00403FB813B689A88E0
:100F6000FB891343FB81BB8923F48073BB81BB895D
:100F700023F40073BB813B681A8ABB891343BB818E
:100F80003B685A8ABB891343BB817B68BA899A80C4
:100F90007B687A891A833B689A687B685A637B68A6
:100FA000FA891A841437BD465DF8047B704700BF88
:100FB000000001400004014080B485B000AF7860BB
:100FC000396000237B810023FB810023BB817B6888
:100FD0001B8C9BB223F010039AB27B681A847B6847
:100FE0001B8CFB817B689B88BB817B681B8B7B8117
:100FF0007B8923F4E0437B817B8923F440737B81ED
:101000003B681B881B029AB27B8913437B81FB8957
:1010100023F02003FB813B689B891B019AB2FB896B
:101020001343FB813B685B881B019AB2FB89134326
:10103000FB817A68224B9A4203D07A68214B9A420C
:101040002BD1FB8923F08003FB813B68DB891B01EB
:101050009AB2FB891343FB81FB8923F04003FB8198
:101060003B689B881B019AB2FB891343FB81BB89B8
:1010700023F48063BB81BB8923F40063BB813B689D
:101080001B8A9B009AB2BB891343BB813B685B8A76
:101090009B009AB2BB891343BB817B68BA899A8053
:1010A0007B687A891A833B689A687B689A637B6855
:1010B000FA891A841437BD465DF8047B704700BF77
:1010C000000001400004014080B485B000AF7860AA
:1010D000396000237B810023FB810023BB817B6877
:1010E0001B8C9BB223F480739AB27B681A847B6852
:1010F0001B8CFB817B689B88BB817B689B8B7B8186
:101100007B8923F070037B817B8923F003037B8140
:101110003B681A887B8913437B81FB8923F4007326
:10112000FB813B689B891B029AB2FB891343FB81BD
:101130003B685B881B029AB2FB891343FB817A6888
:10114000224B9A4203D07A68214B9A422BD1FB89D9
:1011500023F40063FB813B68DB891B029AB2FB89A5
:101160001343FB81FB8923F48063FB813B689B88ED
:101170001B029AB2FB891343FB81BB8923F4805382
:10118000BB81BB8923F40053BB813B681B8A1B01D5
:101190009AB2BB891343BB813B685B8A1B019AB23D
:1011A000BB891343BB817B68BA899A807B687A8943
:1011B0009A833B689A687B68DA637B68FA891A8449
:1011C0001437BD465DF8047B704700BF0000014046
:1011D0000004014080B485B000AF7860396000231E
:1011E000BB8100237B810023FB817B681B8C9BB22E
:1011F00023F480539AB27B681A847B681B8C7B81B2
:101200007B689B88FB817B689B8BBB81BB8923F4BC
:10121000E043BB81BB8923F44073BB813B681B88DF
:101220001B029AB2BB891343BB817B8923F4005311
:101230007B813B689B891B039AB27B8913437B812B
:101240003B685B881B039AB27B8913437B817A6876
:10125000114B9A4203D07A68104B9A420AD1FB890B
:1012600023F48043FB813B681B8A9B019AB2FB8974
:101270001343FB817B68FA899A807B68BA899A83D9
:101280003B689A687B681A647B687A891A84143789
:10129000BD465DF8047B704700000140000401403A
:1012A00080B485B000AF78600B467B800023FB8163
:1012B0007B681B8BFB81FB8923F00803FB81FA8988
:1012C0007B881343FB817B68FA891A831437BD46F8
:1012D0005DF8047B704700BF80B485B000AF7860D4
:1012E0000B467B800023FB817B681B8BFB81FB898A
:1012F00023F40063FB817B881B029AB2FB891343B2
:10130000FB817B68FA891A831437BD465DF8047B3C
:10131000704700BF80B485B000AF78600B467B801B
:101320000023FB817B689B8BFB81FB8923F00803F7
:10133000FB81FA897B881343FB817B68FA899A8356
:101340001437BD465DF8047B704700BF80B485B09C
:1013500000AF78600B467B800023FB817B689B8B12
:10136000FB81FB8923F40063FB817B881B029AB21B
:10137000FB891343FB817B68FA899A831437BD4646
:081380005DF8047B704700BF1B
:0400000508000000EF
:00000001FF
