:020000040800F2
:100000000008002089010008E5010008E50100085A
:10001000E5010008E5010008E50100080000000016
:10002000000000000000000000000000E5010008E2
:10003000E501000800000000E5010008E5010008F6
:10004000E5010008E5010008E5010008E5010008F8
:10005000E5010008E5010008E5010008E5010008E8
:10006000E5010008E5010008E5010008E5010008D8
:10007000E5010008E5010008E5010008E5010008C8
:10008000E5010008E5010008E5010008E5010008B8
:10009000E5010008E5010008E5010008E5010008A8
:1000A000E5010008E5010008E5010008E501000898
:1000B000E5010008E5010008E5010008E501000888
:1000C000E5010008E5010008E5010008E501000878
:1000D000E5010008E5010008E5010008E501000868
:1000E000E5010008E5010008E5010008E501000858
:1000F000E5010008E5010008E5010008E501000848
:10010000E5010008E5010008E5010008E501000837
:10011000E5010008E5010008E5010008E501000827
:10012000E5010008E5010008E5010008E501000817
:10013000E5010008E5010008E5010008E501000807
:10014000E5010008E5010008E5010008E5010008F7
:10015000E5010008E5010008E5010008E5010008E7
:10016000E5010008E5010008E5010008E5010008D7
:10017000E5010008E5010008E5010008E5010008C7
:10018000E5010008E501000880B582B000AF104B22
:100190007B60104B3B6007E03B681A1D3A607A6851
:1001A000111D796012681A603A680B4B9A42F3D3BA
:1001B0000A480B494FF000028842B8BF40F8042BB0
:1001C000FFF6FAAF00F012F80837BD4680BD00BF59
:1001D0009C02000800000020000000200000002019
:1001E0000000002080B400AFFEE700BF80B500AF84
:1001F0000C484FF6FF7100F017F84FF080400021D7
:1002000000F032F800BF4FF0804000F03BF80346AA
:10021000B3F5807FF7D903484FF6FF7100F012F86D
:10022000EBE700BF000C024080B483B000AF786001
:100230000B467B807B687A885A830C37BD465DF815
:10024000047B704780B483B000AF78600B467B803E
:100250007B685A697B885A407B685A610C37BD4677
:100260005DF8047B704700BF80B483B000AF786056
:1002700039607B683A685A620C37BD465DF8047B8A
:10028000704700BF80B483B000AF78607B685B6A62
:0C02900018460C37BD465DF8047B704733
:0400000508000000EF
:00000001FF
